S00B00005254432E7372656330
S11300000C942A000C9447000C9447000C9447006D
S11300100C9447000C9447000C9447000C94470040
S11300200C9447000C9447000C9447000C94470030
S11300300C9447000C9447000C9447000C94470020
S11300400C9447000C9447000C9447000C94470010
S11300500C94470011241FBECFE5D8E0DEBFCDBF0E
S113006010E0A0E6B0E0E4E6FBE002C005900D92EB
S1130070AC3EB107D9F720E0ACEEB0E001C01D9270
S1130080A23FB207E1F70E9487050C94B0050C94D7
S11300900000683008F078C04130C1F5813091F03B
S11300A028F08230D9F0833029F170C02AB381E07E
S11300B090E002C0880F991F6A95E2F7822B8ABBF1
S11300C080E0089527B381E090E002C0880F991F73
S11300D06A95E2F7822B87BB80E0089524B381E020
S11300E090E002C0880F991F6A95E2F7822B84BBC7
S11300F080E0089521B381E090E002C0880F991F49
S11301006A95E2F7822B81BB80E00895411140C0DB
S1130110813099F028F08230E9F0833041F13AC01F
S11301202AB381E090E002C0880F991F6A95E2F734
S1130130809582238ABB80E0089527B381E090E014
S113014002C0880F991F6A95E2F78095822387BBC6
S113015080E0089524B381E090E002C0880F991FE5
S11301606A95E2F78095822384BB80E0089521B3E9
S113017081E090E002C0880F991F6A95E2F78095AC
S1130180822381BB80E0089581E0089581E0089591
S113019081E0089581E00895813049F028F08230AB
S11301A049F0833051F00CC06ABB80E0089567BB0E
S11301B080E0089564BB80E0089561BB80E0089509
S11301C081E00895683008F078C04130C1F581308D
S11301D091F028F08230D9F0833029F170C02BB32C
S11301E081E090E002C0880F991F6A95E2F7822BA4
S11301F08BBB80E0089528B381E090E002C0880FB3
S1130200991F6A95E2F7822B88BB80E0089525B395
S113021081E090E002C0880F991F6A95E2F7822B73
S113022085BB80E0089522B381E090E002C0880F8E
S1130230991F6A95E2F7822B82BB80E008954111F1
S113024040C0813099F028F08230E9F0833041F1E8
S11302503AC02BB381E090E002C0880F991F6A95E1
S1130260E2F7809582238BBB80E0089528B381E078
S113027090E002C0880F991F6A95E2F78095822367
S113028088BB80E0089525B381E090E002C0880F28
S1130290991F6A95E2F78095822385BB80E00895D3
S11302A022B381E090E002C0880F991F6A95E2F7BB
S11302B08095822382BB80E0089581E0089581E0E7
S11302C0089581E0089581E00895813049F028F08F
S11302D0823049F0833051F00CC06BBB80E008954C
S11302E068BB80E0089565BB80E0089562BB80E050
S11302F0089581E008956830C0F5813091F028F0C8
S11303008230D9F0833029F132C089B390E002C041
S1130310959587956A95E2F78170FA01808380E06C
S1130320089586B390E002C0959587956A95E2F7A3
S11303308170FA01808380E0089583B390E002C065
S1130340959587956A95E2F78170FA01808380E03C
S1130350089580B390E002C0959587956A95E2F779
S11303608170FA01808380E0089581E0089581E03E
S1130370089540E060E083E00E94490040E061E0CD
S113038083E00E94490040E062E083E00E9449006B
S113039040E063E083E00E94490041E060E083E0E4
S11303A00E94E20041E061E083E00E94E20041E05B
S11303B062E083E00E94E20041E063E083E00E94A7
S11303C0E20041E064E083E00E94490041E065E02E
S11303D083E00E94490041E066E083E00E94490016
S11303E041E067E083E00E94490041E064E083E08B
S11303F00E94E20041E065E083E00E94E20041E007
S113040066E083E00E94E20041E067E083E00E944E
S1130410E2000895AF92BF92CF92DF92EF92FF92E3
S11304200F931F93CF93DF93CDB7DEB769970FB6C2
S1130430F894DEBF0FBECDBF80E1EAE6F0E0DE0156
S1130440119601900D928A95E1F7198A81E08A8BC1
S113045092E09B8B93E09C8B94E09D8B95E09E8B2C
S113046096E09F8B97E0988F898FB12C46C0CB2C58
S1130470D12CE5E1F0E0EC0FFD1FEC0DFD1DA0809B
S113048040E06A2D83E00E94E20010E02EC0E12EDD
S1130490F12CE1E1F0E0EC0FFD1FEE0DFF1D0081FA
S11304A0AE01475E5F4F602F83E00E947B01898D20
S11304B081111AC007C0AE01475E5F4F602F83E011
S11304C00E947B01898D8823B1F3EE0CFF1CEE0C96
S11304D0FF1C81E090E08C0F9D1FE80EF91EF701D0
S11304E0EC0DFD1D80810EC01F5F143080F241E0D1
S11304F06A2D83E00E94E200B39493E09B1508F018
S1130500B6CF8FEF69960FB6F894DEBF0FBECDBF9E
S1130510DF91CF911F910F91FF90EF90DF90CF90DB
S1130520BF90AF900895CF93C82F482F417060E0DB
S113053082E00E94E200C1FB442740F961E082E0CE
S11305400E94E200C2FB442740F962E082E00E947C
S1130550E200C3FB442740F963E082E00E94E2002A
S1130560CF91089541E067E082E00E94E2008FE3CA
S11305709FE10197F1F700C0000040E067E082E0EE
S11305800E94E2000895CF93C82F40E065E082E026
S11305900E94E20040E066E082E00E94E2008C2FCC
S11305A082958F700E9493020E94B2028C2F0E9447
S11305B093020E94B202CF91089541E065E082E087
S11305C00E94490041E066E082E00E94490041E067
S11305D067E082E00E94490041E060E082E00E941E
S11305E0490041E061E082E00E94490041E062E0AC
S11305F082E00E94490041E063E082E00E944900F9
S11306002FEF83EF91E0215080409040E1F700C04C
S1130610000082E00E9493020E94B20282E00E94E3
S113062093020E94B2028CE00E9493020E94B202E2
S11306308CE00E94C30281E00E94C3020895CF931C
S1130640C82F41E065E082E00E94E20040E066E0FD
S113065082E00E94E2008C2F82958F700E949302A8
S11306600E94B2028C2F0E9493020E94B202CF9188
S113067008950F931F93CF938430910531F481E053
S11306800CC00E941F03CF5F02C08C01C0E0F801C0
S1130690EC0FF11D80818111F4CFCF911F910F9147
S11306A00895823030F490E4899F600D1124862FE0
S11306B001C080E080580E94C3020895DF92EF9247
S11306C0FF920F931F93CF93DF939091F100DDEC92
S11306D09D9FD12C1124FD2CF694F694F694FF0CD6
S11306E08F2D880F880FF80E9F19F92ED694D69463
S11306F0D6949091EF009D9FE12C11240E2D069528
S113070006950695000F802F880F880F080F901B01
S1130710092FE694E694E6949091F0009D9FD12DE4
S113072011241D2F169516951695110F812F880FDC
S1130730880F180F911B192FD695D695D695C0E022
S11307406AC081E00E94A10582E00E94A10583E0C5
S11307500E94A10584E00E94A10585E00E94A105F4
S113076086E00E94A1058D2D0E94A70582E00E94CB
S11307709B058FE19EE40197F1F700C0000082E041
S11307800E94A1058F2D0E94A70581E00E949B0570
S11307908FE19EE40197F1F700C0000081E00E9420
S11307A0A105812F0E94A70583E00E949B058FE18C
S11307B09EE40197F1F700C0000083E00E94A105C8
S11307C08D2F0E94A70584E00E949B058FE19EE483
S11307D00197F1F700C0000084E00E94A105802F7A
S11307E00E94A70585E00E949B058FE39CE9019781
S11307F0F1F700C0000085E00E94A1058E2D0E9443
S1130800A70586E00E949B058FE39CE90197F1F719
S113081000C00000CF5FC93108F493CF8091F1008C
S11308208F5F8093F1008C3338F01092F100809147
S1130830F0008F5F8093F0008091F0008C3338F0EB
S11308401092F0008091EF008F5F8093EF00809111
S1130850EF008D3010F01092EF00DF91CF911F91D7
S11308600F91FF90EF90DF9008958AE790E00E9447
S1130870390360E081E00E94510389E890E00E941E
S113088039030E945E030E940A028093EC008F3FAA
S1130890C1F3813309F038C181E00E94C3028FE8BB
S11308A090E00E94390360E081E00E94510385E9F1
S11308B090E00E9439032FEF89E698E121508040AF
S11308C09040E1F700C000000E940A028093EE000D
S11308D08F3FD1F30E941F032FEF84E39CE021504C
S11308E080409040E1F700C000000E940A0280931B
S11308F0ED008F3FD1F30E941F032FEF84E39CE0B0
S1130900215080409040E1F700C000008091EE004B
S113091090E0C097880F982F990F990F890F9091A5
S1130920ED00890F80538093EF008D30C8F081E093
S11309300E94C3028EE990E00E94390360E081E0E6
S11309400E9451038AEA90E00E9439032FEF83ED5D
S113095090E3215080409040E1F700C000009CCF1C
S113096081E00E94C3028FE890E00E94390360E0B6
S113097081E00E94510380EB90E00E9439032FEF45
S113098089E698E1215080409040E1F700C00000E2
S11309900E940A028093EE008F3FD1F30E941F034E
S11309A02FEF84E39CE0215080409040E1F700C0A9
S11309B000000E940A028093ED008F3FD1F30E9451
S11309C01F032FEF84E39CE0215080409040E1F727
S11309D000C000008091EE0090E0C097880F982F2F
S11309E0990F990F890F9091ED00890F805380938F
S11309F0F0008D3388F081E00E94C3028BEB90E01D
S1130A000E9439032FEF83ED90E321508040904002
S1130A10E1F700C00000A4CF81E00E94C3028FE888
S1130A2090E00E94390360E081E00E9451038DEC64
S1130A3090E00E9439032FEF89E698E1215080402D
S1130A409040E1F700C000000E940A028093EE008B
S1130A508F3FD1F30E941F032FEF84E39CE02150CA
S1130A6080409040E1F700C000000E940A02809399
S1130A70ED008F3FD1F30E941F032FEF84E39CE02E
S1130A80215080409040E1F700C000008091EE00CA
S1130A9090E0C097880F982F990F990F890F909124
S1130AA0ED00890F80538093F1008D3388F081E04D
S1130AB00E94C3028BEB90E00E9439032FEF83ED79
S1130AC090E3215080409040E1F700C00000A4CFA3
S1130AD081E00E94C30288ED90E00E94390360E047
S1130AE081E00E94510381EE90E00E9439032FEFD0
S1130AF089E698E1215080409040E1F700C0000071
S1130B0081E00E94C30208950E945E0308950E943A
S1130B10DD020E94B9010E9492050E9435040E94E0
S1130B203504FDCF6FEF80E00E94CC006FEF81E0D1
S1130B300E94CC00089540E0682F81E00E94E2000A
S1130B40089541E0682F81E00E94E2000895E82FB3
S1130B50F0E0E05AFF4F608180E00E946501089553
S1070B60F894FFCF33
S1130B643F065B4F666D7D077F6F3738392F343509
S1130B7436783132332D43303D2B507265737320F4
S1130B843120746F2073657400636C6F636B00456C
S1130B946E74657200486F757273203A2000457252
S1130BA4726F722057726F6E6700496E70757400AD
S1130BB44D696E75746573203A20004572726F72C4
S1130BC42057726F6E6720696E7075740053656385
S1130BD46F6E6473203A2000436C6F636B206973F7
S10F0BE400776F726B696E672E2E2E0076
S9030000FC
